:020000040800F2
:100000000000022089740108D1740108D17401082C
:10001000D1740108D1740108D174010800000000F6
:10002000000000000000000000000000E9330008AC
:10003000D17401080000000021360008591D000895
:10004000D1740108D1740108D1740108D174010878
:10005000D1740108D1740108D1740108D174010868
:10006000D1740108D1740108D1740108691D000818
:10007000D1740108D1740108D1740108D174010848
:10008000D1740108D1740108D17401080000000086
:10009000000000000000000000000000D174010812
:1000A000D1740108D1740108D1740108D174010818
:1000B000D1740108D1740108D1740108D174010808
:1000C000D1740108D1740108D1740108D1740108F8
:1000D000D1740108D1740108D17401080000000036
:1000E000D1740108D1740108D17401080000000026
:1000F0000000000000000000000000007D1D00085E
:1001000000000000D1740108D1740108D174010805
:1001100000000000000000000000000000000000DF
:10012000D1740108911D0008A51D0008D1740108B3
:10013000D174010800000000000000000000000071
:10014000000000000000000000000000D174010861
:10015000D1740108B91D0008CD1D0008D174010833
:10016000D1740108D17401080000000000000000F3
:10017000000000000000000000000000000000007F
:1001800000000000D1740108000000000000000021
:08019000D1740108D1740108CB
:1001A00010B5054C237833B9044B13B10448AFF3B1
:1001B00000800123237010BD4002002000000000D9
:1001C000A4F901080C4B43B10C480D4910B5AFF32D
:1001D00000800C48036823B910BD0A48036833B98E
:1001E0007047094B002BF7D0BDE810401847064B6D
:1001F000002BF5D0184700BF00000000A4F901084B
:10020000440200203C02002000000000154B002B9F
:1002100008BF134B9D46A3F5803A00218B460F463D
:100220001348144A121A18F08EF80F4B002B00D006
:1002300098470E4B002B00D0984700200021040067
:100240000D000D48002802D00C48AFF3008018F0D4
:100250004BF82000290000F013F818F031F800BF27
:100260000000080000000000000000000000000086
:1002700040020020183301200000000000000000B0
:10028000B0B58AB000AF07F0EDFC00F03BF800F02D
:10029000F7F900F09FF900F0B5F800F0E1F800F090
:1002A0000FF900F043F900F06BF900F0F8FA114B88
:1002B00007F114041D460FCD0FC42B68236007F10E
:1002C00014030021184601F09EFE02460A4B1A60F4
:1002D0000A4B3C461D460FCD0FC42B6823603B469E
:1002E0000021184601F08FFE0246054B1A6001F00E
:1002F00067FEFEE73CDA0108C03F00205CDA010837
:100300009042002080B59AB000AF0023BB603A4A0B
:10031000394B1B6C43F080531364374B1B6C03F059
:100320008053BB60BB6800237B60344A334B1B683F
:1003300043F440431360314B1B6803F440437B603C
:100340007B680123BB630123FB6302233B654FF4FE
:1003500080037B650423BB656423FB6502233B6646
:1003600004237B6607F1380318460EF036F803467F
:10037000002B01D000F0FBF90F237B620223BB624C
:100380000023FB624FF4A0533B6300237B6307F120
:100390002403032118460EF033FA0346002B01D044
:1003A00000F0E5F90123FB60C0237B6104233B617E
:1003B0000223BB6107F10C0318460DF091FE0346C2
:1003C000002B01D000F0D3F90EF02AFC02460C4BB2
:1003D000A3FB02239B09184612F0BFFF042013F071
:1003E00062F800220F214FF0FF3012F078FF00BFBB
:1003F0006837BD4680BD00BF003802400070004035
:10040000D34D621080B500AF124B134A1A60114BE6
:10041000124A5A600F4B00229A600E4B0022DA609B
:100420000C4B4FF480421A610A4B00225A61094B6F
:1004300000229A61074B0022DA61064B00221A6201
:10044000044807F093FD0346002B01D000F08FF91C
:1004500000BF80BD7C40002000540040A086010009
:1004600080B500AF134B144A1A60124B4FF4007260
:100470005A60104B00229A600E4B0022DA600D4B3E
:100480004FF400721A610B4B0C4A5A61094B00225F
:100490009A61084B0022DA61064B01221A62054874
:1004A0000CF002FA0346002B01D000F060F900BF07
:1004B00080BD00BF34430020003C004000EE02003D
:1004C00080B500AF174B184A1A60164B4FF4827272
:1004D0005A60144B00229A60124B0022DA60114BD2
:1004E00000221A610F4B00225A610E4B4FF400722A
:1004F0009A610C4B0022DA610A4B00221A62094B06
:1005000000225A62074B00229A62064B0A22DA62E4
:10051000044810F0E5F80346002B01D000F027F95D
:1005200000BF80BD244000200038004080B500AFEF
:10053000114B124A1A60104B4FF4E1325A600E4BC5
:1005400000229A600C4B0022DA600B4B00221A61E9
:10055000094B0C225A61084B00229A61064B00227B
:10056000DA6105480EF0B6FC0346002B01D000F01E
:10057000FEF800BF80BD00BF5042002000100140C7
:1005800080B500AF114B124A1A60104B4FF4E132A4
:100590005A600E4B00229A600C4B0022DA600B4B23
:1005A00000221A61094B0C225A61084B00229A6101
:1005B000064B0022DA6105480EF08CFC0346002B46
:1005C00001D000F0D4F800BF80BD00BF94420020ED
:1005D0000014014080B582B000AF00237B60274A41
:1005E000264B1B6B43F480031363244B1B6B03F4F8
:1005F00080037B607B6800233B60204A1F4B1B6BA2
:1006000043F4001313631D4B1B6B03F400133B6097
:100610003B68002205210B2012F061FE0B2012F036
:100620007AFE002205212F2012F059FE2F2012F011
:1006300072FE00220521392012F051FE392012F0FD
:100640006AFE002205213A2012F049FE3A2012F0FB
:1006500062FE00220521452012F041FE452012F0E5
:100660005AFE00220521462012F039FE462012F0E3
:1006700052FE00BF0837BD4680BD00BF00380240B3
:1006800080B58AB000AF00233B612E4A2D4B1B6B17
:1006900043F0040313632B4B1B6B03F004033B6118
:1006A0003B690023FB60274A264B1B6B43F080030A
:1006B0001363244B1B6B03F08003FB60FB68002378
:1006C000BB60204A1F4B1B6B43F0020313631D4B9F
:1006D0001B6B03F00203BB60BB6800237B60194AFD
:1006E000184B1B6B43F001031363164B1B6B03F09A
:1006F00001037B607B6800224FF48051124813F0A5
:10070000CDFF4FF400437B610023BB610023FB61FD
:1007100007F1140319460D4813F042FD4FF48053BE
:100720007B610123BB610023FB6100233B6207F176
:1007300014031946044813F033FD00BF2837BD46A3
:1007400080BD00BF003802400004024000080240A3
:1007500080B582B000AF78600A2001F0D8FCFBE7DA
:1007600080B582B000AF786000F0C0F8FCE780B4DC
:1007700000AFFEE780B584B000AFF860B9607A6082
:100780000A4B1B6B184611F028FF084B202283F8F8
:1007900039207B689BB21A46B96804480EF01DFFE9
:1007A0007B6818461037BD4680BD00BF5042002010
:1007B00080B485B000AF78600023FB73224B5B6B85
:1007C0001B685A68214B1B689A4217D01E4B5B6B03
:1007D0001B68DA681D4B1B68D31A40331B78FB7308
:1007E0001A4B1B68013B194A1360184B1B68002BFE
:1007F00002D1164B40221A60FB7B1EE0144B5B6B50
:100800001B685A68134B1B689A42D7D0104B5B6B1E
:100810001B68DA680F4B1B68D31A40331B78FB73D5
:100820000C4B1B68013B0B4A13600A4B1B68002BE7
:1008300002D1084B40221A60FB7B18461437BD4694
:100840005DF8047B704700BF504200204400002048
:10085000944200204800002080B584B000AF78604A
:1008600039600023FB600FE00020FFF7A1FF034683
:10087000DAB27B681A707B685A1C7A601B780A2B84
:1008800007D0FB680133FB60FA683B689A42EBDBF8
:1008900000E000BFFB6818461037BD4680BD80B53C
:1008A00000AF00F063FC00F0BFFB00F001FC402251
:1008B0000A490B480EF0FEFE0022084908480EF0D7
:1008C0008CFE4022074908480EF0F4FE002205493C
:1008D00005480EF082FE00BF80BD00BFBC43002073
:1008E000504200207C430020944200202DE9B04F6C
:1008F0008AB008AFA24B5B6B1B685B689AB2A14BD6
:100900001A80A14B5B6B1B685B689AB29F4B1A8085
:1009100007229F499F4818F0E2FC0346002B01D1B3
:1009200012F015FD05229C499A4818F0D8FC0346A0
:10093000002B0BD1994B1B68184616F097FF034606
:100940000C461A462346964818F06AFB052295493C
:10095000904818F0C4FC0346002B02D1924818F0CE
:10096000D3FB052291498B4818F0B9FC0346002BB4
:100970003ED120E00A2001F0CAFB884B1B681846D4
:1009800016F074FF80468946894B9B68184616F01E
:100990006DFF04460D46864BDB68184616F066FF71
:1009A00002460B46CDE90223CDE9004542464B46BF
:1009B000804818F035FB734B1B881A46704B5B6BF5
:1009C0001B685B689A420CBF01230023DAB26F4BAD
:1009D0001B8819466C4B5B6B1B685B6899420CBFAC
:1009E00001230023DBB21340DBB2002BC2D154E061
:1009F00008227149674818F072FC0346002B4CD15D
:100A0000664A6E49634818F0D1FB0346002B44D078
:100A1000624BD3ED007AB0EE670A00F041F920E0B6
:100A20000A2001F074FB5D4B1B68184616F01EFF90
:100A3000804689465E4B9B68184616F017FF0446B1
:100A40000D465B4BDB68184616F010FF02460B465E
:100A5000CDE90223CDE9004542464B46554818F002
:100A6000DFFA484B1B881A46454B5B6B1B685B687B
:100A70009A420CBF01230023DAB2444B1B8819466B
:100A8000414B5B6B1B685B6899420CBF01230023E1
:100A9000DBB21340DBB2002BC2D10A2248493D48E9
:100AA00018F01DFC0346002B50D132E00A2001F063
:100AB0002EFB3A4B1B68184616F0D8FEC7E900011A
:100AC0003B4B1B69184616F0D1FE04460D46384BC9
:100AD0005B69184616F0CAFE80468946344B9B690E
:100AE000184616F0C3FE82468B46314BDB6918462A
:100AF00016F0BCFE02460B46CDE90623CDE904AB59
:100B0000CDE90289CDE90045D7E900232D4818F049
:100B100087FA1C4B1B881A46194B5B6B1B685B687A
:100B20009A420CBF01230023DAB2184B1B881946E6
:100B3000154B5B6B1B685B6899420CBF012300235C
:100B4000DBB21340DBB2002BB0D190E00D221E4986
:100B5000104818F0C4FB0346002B40F088800F4A71
:100B60001A490C4818F022FB0346002B7FD00B4B90
:100B7000D3ED007AB0EE670A00F092F85BE000BFB8
:100B8000504200201C440020944200207843002062
:100B900070DA01080400002078DA01084C00002017
:100BA00080DA010888DA010890DA0108C0DA010861
:100BB000FC430020C8DA0108ECDA0108F8DA010881
:100BC00004DB010810DB01083CDB01084CDB0108F9
:100BD0000A2001F09CFA2A4B1B68184616F046FEC4
:100BE000C7E90001274B1B69184616F03FFE044673
:100BF0000D46244B5B69184616F038FE8046894640
:100C0000204B9B69184616F031FE82468B461D4BE1
:100C1000DB69184616F02AFE02460B46CDE906238C
:100C2000CDE904ABCDE90289CDE90045D7E9002340
:100C3000154818F0F5F9154B1B881A46144B5B6BD9
:100C40001B685B689A420CBF01230023DAB2114B88
:100C50001B881946104B5B6B1B685B6899420CBF85
:100C600001230023DBB21340DBB2002BB0D14021C3
:100C70000A48FFF7F1FD00BF0837BD46BDE8B08F59
:100C80004C000020FC43002010DB01081C44002025
:100C900050420020784300209442002004000020AD
:100CA00080B483B000AF87ED010AD7ED017A9FEDE4
:100CB000197AF4EEC77AF1EE10FA01DD164B7B607B
:100CC000D7ED017AF5EEC07AF1EE10FA02D54FF0C9
:100CD00000037B60D7ED017A9FED107A67EE877A8B
:100CE000FCEEE77A17EE902A0D4B1A600C4B1B684E
:100CF00007EE903AB8EE677ADFED086AC7EE267A1B
:100D0000084BC3ED007A00BF0C37BD465DF8047B8D
:100D1000704700BF00C8AF4700C8AF4700F5B246F4
:100D20005C0200204C00002080B584B000AF87ED4D
:100D3000010AC7ED000AD7ED017A77EEA77AB6EE81
:100D4000007A77EE877AFDEEE77A17EE903AFB604D
:100D5000D7ED007A77EEA77AB6EE007A77EE877A4B
:100D6000FDEEE77A17EE903ABB60FB68002B01DAE4
:100D70000023FB60FB685F2B01DD5F23FB60BB682A
:100D8000002B01DA0023BB60BB685F2B01DD5F2312
:100D9000BB60FB6807EE903AB8EEE77AF0EE006AC7
:100DA000C7EE267A154BC3ED007ABB6807EE903A82
:100DB000B8EEE77AF0EE006AC7EE267A0F4BC3ED85
:100DC000017A0E4B4FF07E529A600C4B4FF07E52E0
:100DD000DA600121002000F07DF9FB68DBB21946E2
:100DE0003B2000F077F9BB68DBB219463C2000F0ED
:100DF00071F900BF1037BD4680BD00BF5000002014
:100E000080B586B002AF78600123FB815CE0364B91
:100E10001B689B0DBB81344B1A68344B1B68134411
:100E2000314A1360FB89BA89314931F91210314ACC
:100E300022F81310FB895B089BB21946FB89013B22
:100E40002D4A32F9133007EE903AF8EEE77A2B4A42
:100E50008B001344C3ED007AFB895B089BB21946F3
:100E6000FB89254A32F9133007EE903AF8EEE77A1B
:100E7000224A01F580639B001344C3ED007AFB898D
:100E80005B089BB21846BB891D4A9B0013441A6835
:100E90001A4900F500639B000B441A60FB895B084C
:100EA0009BB21846BB8903F54073C3F30903144A88
:100EB0009B0013441A68114900F540639B000B44E2
:100EC0001A60FB890233FB81FB89B3F5806F9ED9E1
:100ED000002300930B4B0C4A0C49084800F096F98C
:100EE00000BF1037BD4680BD600200205C020020BC
:100EF0005CDB010820940020208400202044002096
:100F00005CE30108207400202064002020540020AD
:100F100080B586B002AF786040F20143FB815CE0AF
:100F2000374B1B689B0DBB81354B1A68354B1B68D3
:100F30001344334A1360FB89BA89334931F91210DB
:100F4000324A22F81310FB895B089BB21946FB89D1
:100F5000013B2F4A32F9133007EE903AF8EEE77A68
:100F60002C4A8B001344C3ED007AFB895B089BB2CB
:100F70001946FB89264A32F9133007EE903AF8EE0B
:100F8000E77A244A01F580639B001344C3ED007A9D
:100F9000FB895B089BB21846BB891F4A9B00134420
:100FA0001A681C4900F500639B000B441A60FB891A
:100FB0005B089BB21846BB8903F54073C3F3090372
:100FC000154A9B0013441A68124900F540639B00C0
:100FD0000B441A60FB890233FB81FB89B3F5006F78
:100FE0009ED94FF4007300930C4B0D4A0D490948EC
:100FF00000F00CF900F006FA00BF1037BD4680BDC6
:10100000600200205C0200205CDB010820940020CC
:1010100020840020204400205CE30108207400208C
:10102000206400202054002080B582B000AF2B2324
:10103000BB800021002000F04DF80121012000F0CC
:1010400049F8052006F0A0FE0023FB800EE0FB8897
:10105000144A12F81300FB88124A5B0013445B78B1
:10106000194600F037F8FB880133FB80FA88BB880B
:101070009A42ECD30C4BD3ED007AB0EE670AFFF73F
:101080000FFE0A4BD3ED007A084B93ED017AF0EE98
:10109000470AB0EE670AFFF747FE00BF0837BD46B4
:1010A00080BD00BF5CF301084C0000205000002010
:1010B00080B500AF4FF40063034A044904480BF0C5
:1010C000E9FF00BF80BD00BF2084002020940020E5
:1010D0003443002080B586B002AF03460A46FB7158
:1010E0001346BB71FB793B73BB797B7302E0094804
:1010F00009F04EFF07F10C02642300930223302114
:10110000044807F056F80346002BF0D100BF103713
:10111000BD4680BD7C40002080B586B002AF03464E
:10112000FB7102E0104809F033FFFA1D64230093BD
:10113000012330210C4807F03CF80346002BF1D185
:1011400007F10F026423009301233121064807F0C1
:1011500009F90346002B02D0034809F019FFFB7B75
:1011600018461037BD4680BD7C40002080B582B057
:1011700000AF0023FB802FE0FA8813465B00134486
:101180009B00194A9818FB88DB01184A1344184A37
:10119000042105F0EEFCFA8813465B0013449B0023
:1011A000144A9818FB88DB01134A1344134A04219C
:1011B00005F0DFFCFA8813465B0013449B00104ADD
:1011C0009818FB88DB010F4A13440F4A042105F0ED
:1011D000D0FCFB880133FB80FB88032BCCD900BFFC
:1011E0000837BD4680BD00BF20A40020B02E0120DE
:1011F000C0F3010850EC002050AA002010F40108B0
:1012000080EE002080EC002060F4010880B586B0FC
:1012100000AFF860B9607A603B603B8C9B00FA6875
:101220001344FB603B8C9B00BA681344BB603B8C4F
:101230009B007A6813447B603B8C9B003A681344A4
:101240003B603B8C9B00634A1A444FF400737968FF
:10125000F86805F00BFC3B8C9B005F4A1A444FF486
:1012600000733968F86805F001FC3B8C9B005B4A11
:101270001A444FF400737968B86805F0F7FB3B8CAB
:101280009B00574A1A444FF400733968B86805F058
:10129000EDFB0023FB821BE0FA8A13465B0013443C
:1012A0009B00504A9818FB8A1B034A4A1A443B8CFD
:1012B0009B00D118FB8A1B034B4A1A443B8C9B00B2
:1012C0001A444FF4007305F070FCFB8A0133FB8273
:1012D000FB8A032BE0D93B8C9B00434A1344FB6001
:1012E0003B8C9B00414A1344BB603B8C9B00404AB3
:1012F00013447B603B8C9B003E4A13443B603B8C19
:101300005B09FB8235E0FB8AFA6812683A499B0068
:101310000B441A60FB8ABA681268374920339B0075
:101320000B441A60FB8A7A68D2ED007AF1EE677A94
:10133000314A40339B001344C3ED007AFB8A3A687C
:10134000D2ED007AF1EE677A2B4A60339B001344AA
:10135000C3ED007AFB688033FB60BB688033BB6001
:101360007B6880337B603B6880333B60FB8A013362
:10137000FB82FA8A3B8C5B099BB210339A42C2DB38
:101380000023FB821EE0FA8A13465B0013449B0095
:101390001A4A9818FB8A3A8C520992B25B0113449C
:1013A0009B00154A9918FB8A3A8C520992B25B014C
:1013B00013449B00124A1A44102305F0F6FBFB8AE3
:1013C0000133FB82FB8A032BDDD900BF1837BD46F2
:1013D00080BD00BF50AC002050BC002050CC00208D
:1013E00050DC002020A40020B0EE0020B0FE002041
:1013F000B00E0120B01E012050A4002050EC0020AF
:1014000050A8002080B582B000AF0023FB802DE003
:10141000FB88AF4A12881046FA88AE49D2010A44C6
:10142000D2ED007A9FEDAC7A67EE877AAB4A5B012A
:1014300003449B001344C3ED007AA54B1B881F2B6C
:1014400011D1FA8813465B0013449B00A44A9818F4
:10145000FB88DB01A14A9918FB88DB01A14A1A44E9
:10146000202305F0A2FBFB880133FB80FB88032BC4
:10147000CED99D4BD3ED007A9FED9C7AF4EEC77ADE
:10148000F1EE10FA07DD934BD3ED007A9FED927ADF
:1014900067EE877A0AE08E4B1B88924A9B001344C2
:1014A000D3ED007A9FED927A67EE877A914BD3ED78
:1014B000026A87EEA67A904B83ED047A8A4BD3EDCD
:1014C000007A9FED8A7AF4EEC77AF1EE10FA07DD22
:1014D000804BD3ED207A9FED807A67EE877A0BE020
:1014E0007B4B1B887F4A20339B001344D3ED007A4B
:1014F0009FED7F7A67EE877A7E4BD3ED026A87EEA7
:10150000A67A7D4B83ED057A774BD3ED007A9FED7C
:10151000777AF4EEC77AF1EE10FA07DD6D4BD3ED72
:10152000407A9FED6D7A67EE877A0BE0684B1B88F7
:101530006C4A40339B001344D3ED007A9FED6C7AE4
:1015400067EE877A6B4BD3ED036A87EEA67A6A4B18
:1015500083ED067A644BD3ED007A9FED647AF4EE66
:10156000C77AF1EE10FA07DD5A4BD3ED607A9FEDA2
:101570005A7A67EE877A0BE0554B1B88594A6033DD
:101580009B001344D3ED007A9FED597A67EE877A7A
:10159000584BD3ED036A87EEA67A574B83ED077A53
:1015A000554B93ED047A544BD3ED067A27EE277A08
:1015B000514BD3ED056A504BD3ED077A66EEA77A0F
:1015C00077EE276A4C4B93ED067A4B4BD3ED067AB8
:1015D00027EE277A484B93ED076A474BD3ED077AFE
:1015E00066EE277A37EE277AC6EE877A424BC3ED4E
:1015F000007A414B93ED057A3F4BD3ED067A27EE07
:10160000277A3D4BD3ED046A3B4BD3ED077A66EE68
:10161000A77A77EE677AF1EE676A374B93ED067A31
:10162000354BD3ED067A27EE277A334B93ED076AD5
:10163000314BD3ED077A66EE277A37EE277AC6EE7E
:10164000877A2D4BC3ED017A2B4BD3ED007AF5EE63
:10165000C07AF1EE10FA02D8274B284A1A60264BBE
:1016600093ED007A244BD3ED007A27EE277A224BB4
:10167000D3ED016A204BD3ED017A66EEA77A77EEBF
:10168000277AB0EE670A16F06DFDF0EE407A1A4B3D
:10169000C3ED027A184B93ED017A174BD3ED007A24
:1016A000C7EE276AB0EE660A16F07CFCF0EE407AD0
:1016B000114BC3ED037A064B1B8801339BB203F039
:1016C0001F039AB2024B1A8000BF0837BD4680BD87
:1016D0006402002050A80020D740F22EB030012034
:1016E00080EE002050A600204C0000200000404268
:1016F000901CB02250000020FC43002095BFD63340
:1017000080B500AF032011F0DFFD002200216FF053
:101710000B0011F0E4FD002200216FF00A0011F02F
:10172000DEFD002200216FF0090011F0D8FD00223B
:1017300000216FF0040011F0D2FD002200216FF0B3
:10174000030011F0CCFD00220F216FF0010011F019
:10175000C6FD00220F214FF0FF3011F0C0FD00BF89
:1017600080BD80B588B000AF78607B681B68134A85
:1017700093421ED14FF44073FB6012233B6101235F
:101780007B610323BB610423FB6107F10C03194652
:101790000B4812F005FD0023BB600A4A094B1B6C85
:1017A00043F400131364074B1B6C03F40013BB607A
:1017B000BB6800BF2037BD4680BD00BF005400405D
:1017C000000402400038024080B582B000AF78606B
:1017D0007B681B68084A93420AD1084A074B1B6C76
:1017E00023F4001313644FF44071054812F05AFEBD
:1017F00000BF0837BD4680BD00540040003802409D
:101800000004024080B588B000AF78607B681B6838
:10181000544A934240F0A1800023BB60524A524B8D
:101820001B6C43F4004313644F4B1B6C03F40043E5
:10183000BB60BB684FF48563FB6002233B61002300
:101840007B610223BB610623FB6107F10C03194690
:10185000464812F0A5FC4FF40043FB6002233B61B5
:1018600000237B610223BB610623FB6107F10C03AC
:1018700019463F4812F094FC1023FB6002233B61A1
:1018800000237B610223BB610723FB6107F10C038B
:101890001946364812F084FC364B374A1A60354BED
:1018A0004FF0C0625A60334B00229A60314B0022E5
:1018B000DA60304B4FF480621A612E4B4FF40062B5
:1018C0005A612C4B4FF400529A612A4B4FF48072AC
:1018D000DA61284B00221A62264B00225A62254800
:1018E00010F0EAFC0346002B01D0FEF740FF7B68B6
:1018F000204A9A631F4A7B689363204B204A1A60F0
:101900001E4B00225A601D4B40229A601B4B002246
:10191000DA601A4B4FF480621A61184B4FF4006280
:101920005A61164B4FF400529A61144B4FF4807277
:10193000DA61124B00221A62104B00225A620F48E1
:1019400010F0BAFC0346002B01D0FEF710FF7B68B5
:101950000A4A5A63094A7B68936300BF2037BD4631
:1019600080BD00BF003C004000380240000402403F
:1019700000000240D442002010600240D04000200D
:10198000B860024080B582B000AF78607B681B68A9
:10199000104A934219D1104A0F4B1B6C23F4004399
:1019A00013644FF487610D4812F07CFD4FF4004141
:1019B0000B4812F077FD7B689B6B184610F026FDF4
:1019C0007B685B6B184610F021FD00BF0837BD46F1
:1019D00080BD00BF003C00400038024000040240CF
:1019E0000000024080B588B000AF78607B681B685B
:1019F000124A93421ED10023BB60114A104B1B6C4C
:101A000043F4804313640E4B1B6C03F48043BB60B0
:101A1000BB684FF46043FB6002233B6100237B61A2
:101A20000323BB610523FB6107F10C03194605483D
:101A300012F0B6FB00BF2037BD4680BD0038004025
:101A4000003802400004024080B582B000AF7860E8
:101A50007B681B68084A93420AD1084A074B1B6CF3
:101A600023F4804313644FF46041054812F01AFDDB
:101A700000BF0837BD4680BD003800400038024036
:101A80000004024080B58AB000AF78607B681B68B4
:101A9000824A93427CD100233B61814A804B5B6C3C
:101AA00043F0100353647E4B5B6C03F010033B6107
:101AB0003B694FF4C0637B610223BB610123FB617F
:101AC00003233B6207237B6207F114031946754821
:101AD00012F066FB744B754A1A60734B4FF000624C
:101AE0005A60714B40229A606F4B0022DA606E4B55
:101AF0004FF480621A616C4B00225A616A4B0022DB
:101B00009A61694B0022DA61674B00221A62664BC8
:101B100000225A62644810F0CFFB0346002B01D02C
:101B2000FEF725FE7B68604A1A635F4A7B68936311
:101B30005F4B604A1A605E4B4FF000625A605C4B2C
:101B400000229A605A4B0022DA60594B4FF48062AF
:101B50001A61574B00225A61554B00229A61544B2F
:101B60004FF48072DA61524B00221A62504B00220D
:101B70005A624F4810F0A0FB0346002B01D0FEF73D
:101B8000F6FD7B684A4A5A63494A7B68936380E062
:101B90007B681B68484A93427BD10023FB60404A24
:101BA0003F4B5B6C43F0200353643D4B5B6C03F095
:101BB0002003FB60FB684FF4C0537B610223BB61D1
:101BC0000123FB6103233B6208237B6207F11403BB
:101BD0001946344812F0E4FA384B394A1A60374B48
:101BE0004FF020625A60354B00229A60334B00223E
:101BF000DA60324B4FF480621A61304B00225A6136
:101C00002E4B00229A612D4B4FF48072DA612B4BE0
:101C100000221A62294B00225A62284810F04CFB1D
:101C20000346002B01D0FEF7A2FD7B68234A5A63CE
:101C3000224A7B689363234B234A1A60214B4FF05F
:101C400020625A601F4B40229A601E4B0022DA60CD
:101C50001C4B4FF480621A611A4B00225A61194BD7
:101C600000229A61174B0022DA61164B00221A6299
:101C7000144B00225A62134810F01EFB0346002B3F
:101C800001D0FEF774FD7B680E4A1A630D4A7B682B
:101C9000936300BF2837BD4680BD00BF00100140E0
:101CA000003802400000024030410020B864024089
:101CB000F04100204064024000140140C43F002075
:101CC0002864024090410020A064024080B582B0A8
:101CD00000AF78607B681B681B4A934215D11B4A92
:101CE0001A4B5B6C23F0100353644FF4C061184827
:101CF00012F0D8FB7B681B6B184610F087FB7B68E3
:101D00005B6B184610F082FB19E07B681B68114A78
:101D1000934214D10D4A0D4B5B6C23F020035364A6
:101D20004FF4C0510A4812F0BDFB7B685B6B18464C
:101D300010F06CFB7B681B6B184610F067FB00BF54
:101D40000837BD4680BD00BF00100140003802408A
:101D5000000002400014014080B500AF05F0FAFF1A
:101D600000F035FF00BF80BD80B500AF024810F025
:101D700097FD00BF80BD00BFD442002080B500AFFA
:101D8000024810F08DFD00BF80BD00BFD040002094
:101D900080B500AF024810F083FD00BF80BD00BFDA
:101DA000C43F002080B500AF024810F079FD00BFAD
:101DB00080BD00BFF041002080B500AF024810F0A8
:101DC0006FFD00BF80BD00BF9041002080B500AF17
:101DD000024810F065FD00BF80BD00BF304100200B
:101DE00080B400AF164A164BD3F8883043F4700322
:101DF000C2F88830134A134B1B6843F00103136089
:101E0000104B00229A600F4A0E4B1B6823F084731C
:101E100023F4803313600B4B0B4A5A60094A094B79
:101E20001B6823F480231360064B0022DA60044B06
:101E30004FF000629A6000BFBD465DF8047B7047BA
:101E400000ED00E0003802401030002480B487B07C
:101E500000AF00233B6100237B610223FB60002372
:101E6000BB6002237B60314B9B6803F00C033B613A
:101E70003B69042B07D0082B09D0002B3DD12C4BFC
:101E80002C4A1A603DE02A4B2B4A1A6039E0274B56
:101E90005B689B0D03F00103BB60244B5B6803F0A0
:101EA0003F037B60BB68002B0CD0234A7B68B2FBEE
:101EB000F3F31E4A52689209C2F3080202FB03F3CD
:101EC0007B610BE01B4A7B68B2FBF3F3174A526855
:101ED0009209C2F3080202FB03F37B61134B5B68B8
:101EE0001B0C03F0030301335B00FB607A69FB68A2
:101EF000B2FBF3F30E4A136003E00D4B0D4A1A6078
:101F000000BF0A4B9B681B0903F00F030B4AD35C0D
:101F10003B61074B1A683B6922FA03F3044A1360DA
:101F200000BF1C37BD465DF8047B70470038024097
:101F3000600000200024F40000127A00B0F40108D0
:101F400080B485B000AF0346FB800023FB60B7F987
:101F50000630842B05D0B7F90620FB681344033301
:101F6000FB60FB6818461437BD465DF8047B70477C
:101F700080B485B000AF78608423FB817B68062B3A
:101F800004D87B689BB2033B9BB2FB81B7F90E3050
:101F900018461437BD465DF8047B704780B483B0A3
:101FA00000AFEFF305837B607B68002B14BF012338
:101FB0000023DBB218460C37BD465DF8047B704742
:101FC00080B500AF02F00EF80023184680BD80B542
:101FD00000AF02F039FF0346012B01D1002300E0DE
:101FE0000123184680BD80B500AFFFF7D7FF034639
:101FF000002B03D002F006F9034602E002F0F2F8EB
:102000000346184680BDF0B589B004AF78603960EA
:102010007B685C687B681D687B681B699EB27B6817
:10202000B3F908301846FFF78BFF024600230393ED
:102030000023029307F10C03019300923B683246A0
:102040002946204601F0A6FB0346012B01D00023C0
:1020500000E0FB6818461437BD46F0BD80B500AF00
:1020600002F0E2FE0346184680BD80B582B000AFA4
:102070007860786801F05EFC002318460837BD469A
:1020800080BD80B400AF074B4FF080521A60BFF3A1
:102090004F8FBFF36F8F00231846BD465DF8047B5A
:1020A000704700BF04ED00E080B582B000AF7860FB
:1020B0000B467B80B7F902301846FFF741FF034615
:1020C0001946786801F052FD002318460837BD46CE
:1020D00080BD80B582B000AF7860FFF75FFF034638
:1020E000002B08D0786801F015FD03461846FFF76D
:1020F0003FFF034607E0786801F0F2FC034618460C
:10210000FFF736FF034618460837BD4680BD80B549
:1021100084B000AF78607B68FB60FB68002B01D067
:10212000FB6800E00123184601F088FC00231846F4
:102130001037BD4680BD80B485B000AFF8600B4657
:102140007A60FB72002318461437BD465DF8047BA5
:10215000704780B485B000AF786039600023FB60C1
:10216000FF23FB60FB6818461437BD465DF8047B0F
:10217000704780B485B000AF78600023FB60FF2318
:10218000FB60FB6818461437BD465DF8047B70475A
:1021900080B485B000AF78600023FB60FF23FB6054
:1021A000FB6818461437BD465DF8047B704780B560
:1021B00086B002AF786039600023FB60FFF7EEFE67
:1021C0000346002B19D0396807F10C030093002354
:1021D0000122786803F016F90346012B01D0FF2392
:1021E00017E0FB68002B13D00C4B4FF080521A60A5
:1021F000BFF34F8FBFF36F8F0AE0396800230122CE
:10220000786803F05FF80346012B01D0FF2300E05C
:10221000002318461037BD4680BD00BF04ED00E026
:1022200090B589B000AFF860B9607A6000237B6137
:102230000023FB617B68B3F1FF3F03D14FF0FF3315
:10224000FB6109E07B68002B06D07B68FB61FB69C2
:10225000002B01D10123FB61FFF7A0FE0346002BF9
:1022600002D082233B611BE0B96807F110031A1DFD
:10227000FB69002002F0A0FF0346012B08D0FB6998
:10228000002B02D100233B610AE040233B6107E0C1
:102290007B69002B02DA86233B6101E008233B6166
:1022A000FB681C4607F1100393E8070084E8070069
:1022B000F8682437BD4690BD80B582B000AF786025
:1022C000012003F07CFD034618460837BD4680BD5B
:1022D00080B584B000AF786039600023BB607B6854
:1022E000002B01D180233CE00023FB603B68B3F16D
:1022F000FF3F03D14FF0FF33FB6009E03B68002B49
:1023000006D03B68FB60FB68002B01D10123FB601A
:10231000FFF744FE0346002B17D007F108031A46C7
:102320000021786804F090F80346012B01D0FF23C8
:1023300017E0BB68002B13D00C4B4FF080521A6093
:10234000BFF34F8FBFF36F8F0AE00023FA680021BD
:10235000786803F075FF0346012B01D0FF2300E0EE
:10236000002318461037BD4680BD00BF04ED00E0D5
:1023700080B584B000AF78600023FB600023BB60B1
:10238000FFF70CFE0346002B16D007F10803194691
:10239000786803F0D5FE0346012B01D0FF2317E038
:1023A000BB68002B13D00C4B4FF080521A60BFF368
:1023B0004F8FBFF36F8F0AE000230022002178685F
:1023C00003F03FFD0346012B01D0FF23FB60FB68B8
:1023D00018461037BD4680BD04ED00E080B582B0E0
:1023E00000AF7860FFF7DAFD0346002B01D08223AF
:1023F00003E0786804F05BF9002318460837BD460F
:1024000080BD80B584B000AF786039603B68012B37
:1024100010D103220021012003F078FCF860FB6852
:10242000002B05D0002300220021F86803F009FDED
:10243000FB6800E0002318461037BD4680BD80B51C
:1024400084B000AF786039600023BB607B68002BEC
:1024500001D180233CE00023FB603B68B3F1FF3FE8
:1024600003D14FF0FF33FB6009E03B68002B06D03F
:102470003B68FB60FB68002B01D10123FB60FFF789
:102480008DFD0346002B17D007F108031A460021E3
:10249000786803F0D9FF0346012B01D0FF2317E032
:1024A000BB68002B13D00C4B4FF080521A60BFF367
:1024B0004F8FBFF36F8F0AE00023FA68002178681E
:1024C00003F0BEFE0346012B01D0FF2300E00023F2
:1024D00018461037BD4680BD04ED00E080B584B0DD
:1024E00000AF78600023FB600023BB60FFF756FD60
:1024F0000346002B16D007F108031946786803F04D
:102500001FFE0346012B01D0FF2317E0BB68002B01
:1025100013D00C4B4FF080521A60BFF34F8FBFF3B4
:102520006F8F0AE0002300220021786803F089FC05
:102530000346012B01D0FF23FB60FB6818461037D0
:10254000BD4680BD04ED00E080B582B000AF78608C
:10255000FFF724FD0346002B01D0822303E07868B7
:1025600004F0A5F8002318460837BD4680BD80B5A5
:1025700086B000AF78607B685B68033323F00303A9
:10258000FB60142003F0B0F878617B69002B46D023
:102590007B681A687B699A60FA687B69DA607B6994
:1025A00000221A617B681B68184603F09DF80246FA
:1025B0007B695A607B695B68002B2BD07B681B684A
:1025C000FA6802FB03F3184603F08EF802467B69B3
:1025D0001A607B691B68002B11D000233B6108E067
:1025E0007B695A683B69134400221A703B690133C6
:1025F0003B617B681A683B699A42F1D80FE07B69BE
:102600005B68184603F032F9786903F02FF900236C
:102610007B6104E0786903F029F900237B617B6921
:1026200018461837BD4680BD80B58AB000AF7860C7
:1026300000237B6200233B62FFF7B0FC0346002BC4
:102640000ED0EFF311824FF0500383F31188BFF3E4
:102650006F8FBFF34F8F7A613B617B697B6201E0D3
:1026600000F088FF0023FB6129E07B681A69FB69A1
:102670001344BB617B689A68BB699A4201D8002306
:10268000BB617B685A68BB6913441B78002B13D16C
:102690007B685A68BB69134401221A707B681B6807
:1026A00019467B68DB68BA6902FB03F30B443B62A3
:1026B0007B68BA691A6107E0FB690133FB617B68DB
:1026C0009A68FB699A42D0D8FFF768FC0346002B52
:1026D00005D07B6AFB60FB6883F3118801E000F0A2
:1026E00077FF3B6A18462837BD4680BD80B584B069
:1026F00000AF78607868FFF797FFF860FB68002B01
:1027000004D004220021F86815F01DFEFB6818466D
:102710001037BD4680BD80B485B000AF78603960A9
:102720007B68002B01D1802330E03B68002B01D176
:1027300080232BE07B681A683B689A4201D980238A
:1027400024E03B687A6812689B1AFB607B68DA6851
:10275000FB68B3FBF2F102FB01F29B1A002B01D0E4
:10276000802313E07B68DB68FA68B2FBF3F3FB605D
:102770007B689A68FB689A4201D8802306E07B68F0
:102780005A68FB68134400221A7000231846143755
:10279000BD465DF8047B704780B582B000AF7860BD
:1027A00039607B6818687B685B680022194603F013
:1027B000ADFA034618460837BD4680BD80B586B0E1
:1027C00000AFF860B9607A6000233B617B687B6191
:1027D0007B69002B01D101237B61FFF7DFFB0346FF
:1027E000002B18D007F1100207F108010023F86848
:1027F00003F01AFC0346012B01D0FF2318E03B69CC
:10280000002B14D00C4B4FF080521A60BFF34F8F47
:10281000BFF36F8F0BE007F1080100237A69F868B6
:1028200003F00FFB0346012B01D0FF2300E0002340
:1028300018461837BD4680BD04ED00E090B58BB05A
:1028400000AFF860B9607A60BB68FB610023BB61D0
:10285000BB68002B0AD180237B61FB681C4607F113
:10286000140393E8070084E8070054E000233B6268
:1028700000237B627B68B3F1FF3F03D14FF0FF334E
:102880007B6209E07B68002B06D07B687B627B6AF9
:10289000002B01D101237B62FFF780FB0346002B55
:1028A0001CD007F1200207F1140304331946B8685D
:1028B00003F0CAFD0346012B02D110237B6101E026
:1028C00000237B613B6A002B1DD0154B4FF08052DB
:1028D0001A60BFF34F8FBFF36F8F14E007F114033B
:1028E000191D00237A6AB86803F0AAFC0346012B7D
:1028F00002D110237B6106E07B6A002B01D100230B
:1029000000E040237B61FB681C4607F1140393E859
:10291000070084E80700F8682C37BD4690BD00BF6B
:1029200004ED00E090B587B000AF786039607B6857
:102930001B68FB607B685B683B6100237B617B6895
:102940009C680C2002F0D0FE034623607B689B68E5
:102950001B68002B01D1002339E07B689B681B6852
:102960007A681A607B689B681C687B681B68002219
:102970000421184603F0CAF9034663607B689B682C
:102980001B685B68002B07D17B689B681B68184637
:1029900002F06CFF00231AE07B689B681C6807F15B
:1029A0000C031846FFF7E3FD0346A3607B689B68B2
:1029B0001B689B68002B07D17B689B681B681846C7
:1029C00002F054FF002302E07B689B681B681846F6
:1029D0001C37BD4690BD80B584B000AF78603960CB
:1029E0007B68002B01D1002306E07B689B681846BA
:1029F000FFF71AFEF860FB6818461037BD4680BD29
:102A000080B584B000AF7860396039687868FFF7C6
:102A1000E2FFB860BB68002B0DD00023FB6007E02D
:102A2000BA68FB68134400221A70FB680133FB602C
:102A3000FB68032BF4D9BB6818461037BD4680BD30
:102A400080B584B000AF786039607B68002B01D11D
:102A500080232CE00023FB60FFF7A0FA0346002B45
:102A600018D07B68586807F10C023946002303F040
:102A7000DBFA0346012B01D0FF2318E0FB68002B93
:102A800014D00D4B4FF080521A60BFF34F8FBFF33D
:102A90006F8F0BE07B68586839460023002203F0F3
:102AA000D0F90346012B01D0FF2300E00023184694
:102AB0001037BD4680BD00BF04ED00E090B58BB07F
:102AC00000AFF860B9607A60BB68FB61BB68002B3F
:102AD0000AD180237B61FB681C4607F1140393E84D
:102AE000070084E8070056E000233B6200237B6276
:102AF0007B68B3F1FF3F03D14FF0FF337B6209E006
:102B00007B68002B06D07B687B627B6A002B01D13F
:102B100001237B62FFF742FA0346002B1DD0BB68FE
:102B2000586807F1200207F114030433194603F033
:102B30008BFC0346012B02D120237B6101E00023A3
:102B40007B613B6A002B1ED0154B4FF080521A6000
:102B5000BFF34F8FBFF36F8F15E0BB68586807F165
:102B60001403191D00237A6A03F06AFB0346012B44
:102B700002D120237B6106E07B6A002B01D1002378
:102B800000E040237B61FB681C4607F1140393E8D7
:102B9000070084E80700F8682C37BD4690BD00BFE9
:102BA00004ED00E080B582B000AF786039607B68EA
:102BB000002B01D1802306E07B689B6839681846AA
:102BC000FFF7A9FD034618460837BD4680BD80B50E
:102BD00000AF02F039F90346012B01D000F051FD9E
:102BE00000BF80BD80B582B000AF7860786801F02A
:102BF0006BF8002318460837BD4680BD80B582B00B
:102C000000AF7860FFF7CAF90346002B0ED0786852
:102C100001F078F90346012B0BD1084B4FF080529D
:102C20001A60BFF34F8FBFF36F8F02E0786801F037
:102C30000DF9002318460837BD4680BD04ED00E0BD
:102C400080B500AF01F02CFA0023184680BD80B596
:102C500000AF01F033FA0346012B01D1002300E05D
:102C6000FF23184680BD80B483B000AF7860396020
:102C7000812318460C37BD465DF8047B704780B44D
:102C800083B000AF7860002318460C37BD465DF86E
:102C9000047B704790B589B000AFF860B9607A6086
:102CA000BB68BB61BB68002B0AD180233B61FB681A
:102CB0001C4607F1100393E8070084E8070030E0A2
:102CC0000023FB617B68B3F1FF3F03D14FF0FF337B
:102CD000FB6109E07B68002B06D07B68FB61FB6928
:102CE000002B01D10123FB6107F11003191D012302
:102CF000FA69B86803F0A4FA0346012B02D1102345
:102D00003B6106E0FB69002B01D1002300E040237A
:102D10003B61FB681C4607F1100393E8070084E859
:102D20000700F8682437BD4690BD80B483B000AF7B
:102D30007860002318460C37BD465DF8047B704769
:102D400080B483B000AF7860812318460C37BD464D
:102D50005DF8047B704780B483B000AF7860396061
:102D6000812318460C37BD465DF8047B704700BFD1
:102D700080B582B000AF1C2002F0B6FC78607B68A2
:102D8000002B07D07B6800221A607B68043318464A
:102D900002F0A0FE7B6818460837BD4680BD80B5AE
:102DA0008CB000AFF860B9607A603B60FB68BB62D2
:102DB00000237B627B6803F07F43002B09D04FF038
:102DC000500383F31188BFF36F8FBFF34F8FBB6145
:102DD000FEE77B68002B09D14FF0500383F3118885
:102DE000BFF36F8FBFF34F8F7B61FEE702F02CF8CC
:102DF0000346002B02D13B68002B01D1012300E0E8
:102E00000023002B09D14FF0500383F31188BFF347
:102E10006F8FBFF34F8F3B61FEE701F041F9BB6A53
:102E20001B683B62B968F86800F083F93A6ABB68CE
:102E30001A437B681A407B689A420DD13A6ABB6894
:102E40001343FB62BB6A1A687B68DB431A40BB6AA8
:102E50001A6000233B6011E03B68002B0BD0BB6A7B
:102E6000181D7B6843F0A0633A68194601F0C8FB5F
:102E70000023FB6202E0BB6A1B68FB6201F01EF9E3
:102E8000F8613B68002B2CD0FB69002B07D1174B56
:102E90004FF080521A60BFF34F8FBFF36F8F02F075
:102EA000EBF8F862FB6A03F00073002B15D100F019
:102EB00061FBBB6A1B68FB62FA6A7B681A407B682D
:102EC0009A4206D1BB6A1A687B68DB431A40BB6A28
:102ED0001A6000F07DFB01237B62FB6A23F07F43D5
:102EE000FB62FB6A18463037BD4680BD04ED00E04A
:102EF00080B590B000AFF860B9607A603B60FB6865
:102F00007B630023BB6300233B63FB68002B09D179
:102F10004FF0500383F31188BFF36F8FBFF34F8FD0
:102F20003B62FEE7BB6803F07F43002B09D04FF004
:102F3000500383F31188BFF36F8FBFF34F8FFB6193
:102F4000FEE7BB68002B09D14FF0500383F31188D3
:102F5000BFF36F8FBFF34F8FBB61FEE701F074FFCC
:102F60000346002B02D1BB6C002B01D1012300E0F2
:102F70000023002B09D14FF0500383F31188BFF3D6
:102F80006F8FBFF34F8F7B61FEE701F089F87B6B9A
:102F90001B68FB623A68B968F86A00F09DF9B8628C
:102FA000BB6A002B0ED0FB6AFB630023BB647B680B
:102FB000002B26D07B6B1A68BB68DB431A407B6B07
:102FC0001A601EE0BB6C002B02D1FB6AFB6318E0A9
:102FD0007B68002B03D0BB6B43F08073BB633B6803
:102FE000002B03D0BB6B43F08063BB637B6B181D6E
:102FF000BA68BB6B1343BA6C194601F001FB00239E
:10300000FB6301F05BF87862BB6C002B31D07B6A0C
:10301000002B07D1194B4FF080521A60BFF34F8F2E
:10302000BFF36F8F02F028F8F863FB6B03F00073B7
:10303000002B1AD100F09EFA7B6B1B68FB633A6889
:10304000B968F86B00F048F90346002B09D07B689B
:10305000002B06D07B6B1A68BB68DB431A407B6B86
:103060001A6000F0B5FA00233B63FB6B23F07F434B
:10307000FB63FB6B18464037BD4680BD04ED00E0A6
:1030800080B586B000AF786039607B687B617B6813
:10309000002B09D14FF0500383F31188BFF36F8FDA
:1030A000BFF34F8FFB60FEE73B6803F07F43002BCD
:1030B00009D04FF0500383F31188BFF36F8FBFF334
:1030C0004F8FBB60FEE700F055FA7B691B683B61E0
:1030D0007B691A683B68DB431A407B691A6000F021
:1030E00077FA3B6918461837BD4680BD80B489B071
:1030F00000AF78607B68FB61EFF311824FF0500303
:1031000083F31188BFF36F8FBFF34F8FFA60BB60FB
:10311000FB68BB61FB691B687B61BB693B613B6909
:1031200083F311887B6918462437BD465DF8047B1C
:10313000704780B58EB000AF7860396000233B6384
:103140007B68BB620023FB627B68002B09D14FF0D8
:10315000500383F31188BFF36F8FBFF34F8F3B6131
:10316000FEE73B6803F07F43002B09D04FF050038C
:1031700083F31188BFF36F8FBFF34F8FFB60FEE7C0
:10318000BB6A04337B627B6A08333B6200F088FFD2
:103190007B6ADB687B63BB6A1A683B681A43BB6A5D
:1031A0001A603CE07B6B5B68FB617B6B1B68BB61FF
:1031B0000023FB62BB6903F07F437B61BB6923F0A3
:1031C0007F43BB617B6903F08063002B08D1BB6A3E
:1031D0001A68BB691340002B0BD00123FB6208E087
:1031E000BB6A1A68BB691A40BB699A4201D10123C4
:1031F000FB62FB6A002B10D07B6903F08073002B0D
:1032000003D03A6BBB6913433B63BB6A1B6843F053
:1032100000731946786B01F0BBFAFB697B637A6B2C
:103220003B6A9A42BED1BB6A1A683B6BDB431A40C9
:10323000BB6A1A6000F042FFBB6A1B681846383749
:10324000BD4680BD80B586B000AF78607B687B618D
:103250007B6904333B6100F023FF16E03B69DA68C9
:103260003B6908339A4209D14FF0500383F3118828
:10327000BFF36F8FBFF34F8FFB60FEE73B69DB68E7
:103280004FF00071184601F083FA3B691B68002B70
:10329000E4D1786902F0EAFA00F010FF00BF1837B5
:1032A000BD4680BD80B582B000AF786039603968B6
:1032B0007868FFF73EFF00BF0837BD4680BD80B588
:1032C00082B000AF7860396039687868FFF7D8FE5F
:1032D00000BF0837BD4680BD80B487B000AFF8603E
:1032E000B9607A6000237B617B68002B07D1FA68A4
:1032F000BB681340002B0AD001237B6107E0FA680A
:10330000BB681A40BB689A4201D101237B617B698B
:1033100018461C37BD465DF8047B704780B485B005
:1033200000AF78607B68BB607B68002B02D1002314
:10333000FB6002E0BB689B69FB60FB6818461437C2
:10334000BD465DF8047B704780B485B000AFF8607F
:10335000B9607A60FB68043BFB60FB684FF08072E9
:103360001A60FB68043BFB60BA68FB681A60FB6884
:10337000043BFB600C4AFB681A60FB68143BFB6073
:103380007A68FB681A60FB68043BFB60FB686FF0BF
:1033900002021A60FB68203BFB60FB68184614378A
:1033A000BD465DF8047B7047AD33000880B483B040
:1033B00000AF0C4B1B68B3F1FF3F09D04FF0500337
:1033C00083F31188BFF36F8FBFF34F8F7B60FEE7EE
:1033D0004FF0500383F31188BFF36F8FBFF34F8F0C
:1033E0003B60FEE764000020064B19680868B0E8FF
:1033F000F04F80F30988BFF36F8F4FF0000080F328
:10340000118870477002002000BFE0480068006823
:1034100080F3088862B661B6BFF34F8FBFF36F8F3A
:1034200000DF00BF00BF80B586B000AF3B4B1B681C
:103430003B4A934209D14FF0500383F31188BFF305
:103440006F8FBFF34F8F3B61FEE7344B1B68354AEC
:10345000934209D14FF0500383F31188BFF36F8F6C
:10346000BFF34F8FFB60FEE72F4B7B617B691B78BF
:10347000DBB2BB607B69FF221A707B691B78DBB211
:10348000FB71FB79DBB203F05003DAB2274B1A7001
:10349000274B07221A6009E0254B1B68013B244A91
:1034A0001360FB79DBB25B00DBB2FB71FB79DBB253
:1034B00003F08003802BEFD01D4B1B681B021C4ABE
:1034C00013601B4B1B6803F4E063194A1360BB686D
:1034D000DAB27B691A70174A164B1B6843F4700303
:1034E0001360144A134B1B6843F07043136000F0E1
:1034F000EBF8114B00221A6000F002F90F4A0F4B53
:103500001B6843F040431360FFF77FFFFFF74EFF58
:10351000002318461837BD4680BD00BF00ED00E00F
:1035200071C20F4170C20F4100E400E06802002048
:103530006C02002020ED00E06400002034EF00E089
:1035400080B483B000AF0A4B1B68B3F57A7F09D013
:103550004FF0500383F31188BFF36F8FBFF34F8F8A
:103560007B60FEE700BF0C37BD465DF8047B70470B
:103570006400002080B483B000AF4FF0500383F3A9
:103580001188BFF36F8FBFF34F8F7B600E4B1B68AB
:1035900001330D4A13600C4B1B68012B0ED10B4BF2
:1035A0001B68DBB2002B09D04FF0500383F3118866
:1035B000BFF36F8FBFF34F8F3B60FEE700BF0C3749
:1035C000BD465DF8047B70476400002004ED00E018
:1035D00080B483B000AF114B1B68002B09D14FF0B2
:1035E000500383F31188BFF36F8FBFF34F8F7B605E
:1035F000FEE70A4B1B68013B084A1360074B1B6838
:10360000002B04D100233B603B6883F3118800BF8B
:103610000C37BD465DF8047B704700BF6400002096
:10362000EFF30980BFF36F8F144B1A681EF0100F71
:1036300008BF20ED108A20E9F04F10604DF8043DDE
:103640004FF0500080F31188BFF34F8FBFF36F8F9F
:1036500000F02EFF4FF0000080F3118808BC1968BD
:103660000868B0E8F04F1EF0100F08BFB0EC108AE9
:1036700080F30988BFF36F8F704700BF700200208E
:1036800000BF80B584B000AFEFF311824FF050035C
:1036900083F31188BFF36F8FBFF34F8FFA60BB6066
:1036A00000F048FE0346002B03D0064B4FF080523B
:1036B0001A6000237B607B6883F3118800BF10379A
:1036C000BD4680BD04ED00E080B400AF084A094B60
:1036D0001B680949A1FB03139B09013B1360074BBE
:1036E00007221A6000BFBD465DF8047B704700BF2B
:1036F00014E000E060000020D34D621010E000E014
:10370000DFF88C00016841F470010160704700BF70
:1037100080B485B000AFEFF30583FB60FB680F2B2F
:1037200013D9164AFB6813441B78FB72144B1B78A1
:10373000FA7A9A4209D24FF0500383F31188BFF30B
:103740006F8FBFF34F8F7B60FEE70E4B1B6803F458
:10375000E0620D4B1B689A4209D94FF0500383F386
:103760001188BFF36F8FBFF34F8F3B60FEE700BF41
:103770001437BD465DF8047B704700BFF0E300E0FE
:10378000680200200CED00E06C02002008ED00E073
:1037900088ED00E080B58CB002AFF860B9603B60A6
:1037A0001346FB80FB68002B09D14FF0500383F3D5
:1037B0001188BFF36F8FBFF34F8FBB61FEE73B6B89
:1037C000062B09D94FF0500383F31188BFF36F8F95
:1037D000BFF34F8F7B61FEE7FB88B96B184601F0A2
:1037E00011FA38623B6A002B78D03B6A1A6BFB886F
:1037F00003F18043013B9B001344FB61FB6923F011
:103800000703FB61FB6903F00703002B09D04FF0AE
:10381000500383F31188BFF36F8FBFF34F8F3B616A
:10382000FEE7FB880093FB6B3A6BB968386A01F0DE
:10383000E3F83A68F968F869FFF786FD02463B6AE3
:103840001A607B6B002B02D07B6B3A6A1A60FFF721
:1038500091FE314B1B6801332F4A13602F4B1B68BD
:10386000002B09D12D4A3B6A13602B4B1B68012B9F
:103870000FD101F015F90CE0294B1B68002B08D182
:10388000264B1B68DA6A3B6B9A4202D8234A3B6A92
:103890001360244B1B680133224A1360214B1A68C2
:1038A0003B6A5A643B6ADB6A01229A401E4B1B68E2
:1038B00013431D4A13603B6ADA6A13469B001344A4
:1038C0009B001A4A1A443B6A04331946104602F018
:1038D0002EF901237B62FFF77BFE02E04FF0FF33FE
:1038E0007B627B6A012B11D10D4B1B68002B0DD025
:1038F0000A4B1B68DA6A3B6B9A4207D20C4B4FF0BB
:1039000080521A60BFF34F8FBFF36F8F7B6A1846E8
:103910002837BD4680BD00BF700300207002002024
:103920007C0300208C030020780300207402002018
:1039300004ED00E080B584B000AF7860FFF71AFEB8
:103940007B68002B02D1344B1B6800E07B68FB6076
:10395000FB680433184602F047F90346002B15D1E3
:10396000FB68DA6A2D4913469B0013449B000B4405
:103970001B68002B0AD1FB68DB6A012202FA03F301
:10398000DA43274B1B681340254A1360FB689B6A88
:10399000002B04D0FB681833184602F025F9FB68A9
:1039A000043319461F4802F0C2F81F4B1B6801334D
:1039B0001D4A13601D4B1B6801331C4A1360FFF73F
:1039C00007FE1B4B1B68002B21D0134B1B68FA68AA
:1039D0009A4216D1174B1B68002B09D04FF05003A9
:1039E00083F31188BFF36F8FBFF34F8FBB60FEE788
:1039F000114B4FF080521A60BFF34F8FBFF36F8FA0
:103A000005E0FFF7B7FD01F0EAF9FFF7E1FD00BFC0
:103A10001037BD4680BD00BF700200207402002038
:103A20007803002044030020580300208C0300206A
:103A30007C0300209403002004ED00E080B586B0F4
:103A400000AF786000237B617B68002B2FD01F4B79
:103A50001B68002B09D04FF0500383F31188BFF38C
:103A60006F8FBFF34F8FFB60FEE700F019FB184B21
:103A70001A687B6813443B61164B1B680433184675
:103A800002F0B2F80346002B0BD1124B1B68DB6A25
:103A9000012202FA03F3DA430F4B1B6813400E4A6C
:103AA0001360386901F078F800F008FB78617B69F1
:103AB000002B07D1094B4FF080521A60BFF34F8F94
:103AC000BFF36F8F00BF1837BD4680BD9403002041
:103AD00074030020700200207803002004ED00E051
:103AE00080B584B000AF7860FFF744FD7B68002BA1
:103AF00002D1074B1B6800E07B68FB60FB68DB6A58
:103B0000BB60FFF765FDBB6818461037BD4680BD3A
:103B10007002002080B588B000AF7860FFF7F8FD34
:103B2000EFF311824FF0500383F31188BFF36F8FCF
:103B3000BFF34F8F3A61FB603B69FB617B68002BF1
:103B400002D1094B1B6800E07B68BB61BB69DB6A83
:103B50007B61FB69BB60BB6883F311887B69184696
:103B60002037BD4680BD00BF7002002080B588B000
:103B700000AF786039600023FB613B68062B09D9F0
:103B80004FF0500383F31188BFF36F8FBFF34F8F54
:103B9000FB60FEE73B68062B01D906233B60FFF77D
:103BA000E9FC7B68002B02D1434B1B6800E07B687B
:103BB000BB61BB69DB6C7B617A693B689A4274D0FC
:103BC0003A687B699A420DD93B4B1B68BA699A42A5
:103BD0000FD0394B1B68DA6A3B689A4209D8012337
:103BE000FB6106E0344B1B68BA699A4201D101239C
:103BF000FB61BB69DB6A3B61BB69DA6CBB69DB6A91
:103C00009A4202D1BB693A68DA62BB693A68DA64FF
:103C1000BB699B69002B04DB3B68C3F10702BB69EE
:103C20009A61BB6959693A6913469B0013449B002A
:103C3000224A1344994201D1012300E00023002BC2
:103C400028D0BB690433184601F0CEFF0346002B91
:103C500009D101223B6902FA03F3DA43184B1B68CE
:103C60001340174A1360BB69DB6A01229A40144B68
:103C70001B681343124A1360BB69DA6A13469B0040
:103C800013449B000D4A1A44BB690433194610467D
:103C900001F04DFFFB69012B07D10A4B4FF0805219
:103CA0001A60BFF34F8FBFF36F8FFFF791FC00BF18
:103CB0002037BD4680BD00BF700200207402002086
:103CC0007803002004ED00E080B584B000AF786098
:103CD000FFF750FC7B68002B02D1374B1B6800E0DC
:103CE0007B68FB60FB680433184601F07DFF0346E8
:103CF000002B15D1FB68DA6A304913469B00134448
:103D00009B000B441B68002B0AD1FB68DB6A012275
:103D100002FA03F3DA432A4B1B681340284A136064
:103D2000FB689B6A002B04D0FB681833184601F02F
:103D30005BFFFB6804331946224801F0F8FEFFF7E9
:103D400047FC1D4B1B68FA689A4227D11E4B1B6823
:103D5000002B16D01D4B1B68002B09D04FF05003D1
:103D600083F31188BFF36F8FBFF34F8FBB60FEE704
:103D7000174B4FF080521A60BFF34F8FBFF36F8F16
:103D800016E0104B1A68134B1B689A4203D10A4B7A
:103D900000221A600CE000F08BFB09E00A4B1B6864
:103DA000002B05D0FFF7E6FB01F019F8FFF710FC38
:103DB00000BF1037BD4680BD700200207402002095
:103DC000780300205C0300207C0300209403002083
:103DD00004ED00E07003002080B487B000AF78608D
:103DE00000237B617B683B617B68002B09D14FF02E
:103DF000500383F31188BFF36F8FBFF34F8FFB60C6
:103E0000FEE73B695B690F4A934201D1012300E061
:103E10000023002B0FD03B699B6A0B4A93420AD0C8
:103E20003B699B6A002B01D1012300E00023002B9A
:103E300001D001237B617B6918461C37BD465DF8C4
:103E4000047B70475C0300203003002080B584B001
:103E500000AF78607B68FB607B68002B09D14FF076
:103E6000500383F31188BFF36F8FBFF34F8FBB6095
:103E7000FEE7FB68002B39D01E4B1B68FA689A429C
:103E800034D0FFF777FBF868FFF7A6FF0346012B56
:103E90002AD1FB680433184601F0A6FEFB68DB6AF2
:103EA00001229A40144B1B681343134A1360FB68AA
:103EB000DA6A13469B0013449B00104A1A44FB68BD
:103EC00004331946104601F032FEFB68DA6A094BEA
:103ED0001B68DB6A9A4207D3094B4FF080521A6085
:103EE000BFF34F8FBFF36F8FFFF772FB00BF103729
:103EF000BD4680BD700200207803002074020020BF
:103F000004ED00E080B58AB000AF786000237B62EA
:103F10007B683B627B68002B09D14FF0500383F331
:103F20001188BFF36F8FBFF34F8FBB61FEE7FFF7C1
:103F3000EFFBEFF311824FF0500383F31188BFF3CF
:103F40006F8FBFF34F8F7A613B617B69FB61386A8A
:103F5000FFF742FF0346012B2FD11D4B1B68002B9F
:103F600025D13B6ADA6A1B4B1B68DB6A9A4201D394
:103F700001237B623B6A0433184601F035FE3B6A3D
:103F8000DB6A01229A40144B1B681343124A1360E8
:103F90003B6ADA6A13469B0013449B000F4A1A449B
:103FA0003B6A04331946104601F0C1FD05E03B6A47
:103FB000183319460A4801F0BAFDFB69FB60FB683B
:103FC00083F311887B6A18462837BD4680BD00BF41
:103FD0009403002070020020780300207402002067
:103FE0003003002080B588B004AF00230393002382
:103FF000029300230193002300930023802217499A
:104000001748FFF7C7FBF860FB68012B15D14FF08D
:10401000500383F31188BFF36F8FBFF34F8FBB60E3
:10402000104B4FF0FF321A600F4B01221A600F4BFA
:1040300000221A60FFF7F7F90CE0FB68002B09D1AA
:104040004FF0500383F31188BFF36F8FBFF34F8F8F
:104050007B60FEE700BF1037BD4680BDC4F4010899
:10406000CB490008900300207C030020740300204B
:1040700080B582B000AF4FF0500383F31188BFF3D7
:104080006F8FBFF34F8F7B60044B00221A60FFF7E6
:1040900057FA00BF0837BD4680BD00BF7C03002033
:1040A00080B400AF044B1B680133034A136000BFA8
:1040B000BD465DF8047B70479403002080B584B052
:1040C00000AF0023FB603E4B1B68002B09D14FF073
:1040D000500383F31188BFF36F8FBFF34F8F7B6063
:1040E000FEE7FFF747FA364B1B68013B344A136083
:1040F000334B1B68002B5BD1324B1B68002B57D016
:104100002EE0314BDB68DB68BB60BB6818331846B8
:1041100001F06AFDBB680433184601F065FDBB6819
:10412000DB6A01229A40294B1B681343274A13601C
:10413000BB68DA6A13469B0013449B00244A1A4466
:10414000BB6804331946104601F0F1FCBB68DA6A1B
:10415000204B1B68DB6A9A4202D31F4B01221A6074
:10416000194B1B68002BCCD11C4B1B68002B11D0AA
:104170000CE000F0DFF80346002B02D0164B0122C2
:104180001A60164B1B68013B144A1360134B1B68E3
:10419000002BEED1104B1B68012B09D10123FB60D2
:1041A0000F4B4FF080521A60BFF34F8FBFF36F8FEA
:1041B000FFF70EFAFB6818461037BD4680BD00BFFA
:1041C00094030020700300203003002078030020B7
:1041D000740200207002002084030020800300206D
:1041E00004ED00E080B483B000AF054B1B687B603A
:1041F0007B6818460C37BD465DF8047B704700BFEE
:104200007403002080B582B000AFFFF781FA00236D
:104210007B60044B1B683B603B6818460837BD4613
:1042200080BD00BF7403002080B400AF034B1B6847
:104230001846BD465DF8047B704700BF7003002040
:1042400080B586B000AFF860B9607A6000237B610A
:1042500007233B61FFF724FF304B1B68BA689A4283
:1042600054D33B69013B3B617B695B01FA68D01821
:104270003A6913469B0013449B00294A13440122C8
:10428000194600F0F5FC02467B6913447B613B69EB
:10429000002BE6D17B695B01FA68D018214B1B68C3
:1042A0000222194600F0E4FC02467B6913447B615C
:1042B0007B695B01FA68D0181B4B1B680222194608
:1042C00000F0D6FC02467B6913447B617B695B018D
:1042D000FA68134404221549184600F0C9FC024646
:1042E0007B6913447B617B695B01FA681344032299
:1042F0000F49184600F0BCFC02467B6913447B6101
:104300007B68002B02D07B6800221A60FFF7D6FE84
:104310007B6918461837BD4680BD00BF700300207A
:1043200074020020280300202C03002044030020F6
:104330005C03002080B586B000AF00237B61514B49
:104340001B68002B40F08D804F4B1B6801334E4A99
:1043500013604D4B1B683B613B69002B1FD14B4BDE
:104360001B681B68002B09D04FF0500383F31188A2
:10437000BFF36F8FBFF34F8F3B60FEE7434B1B686C
:10438000FB60434B1B68414A1360414AFB68136062
:10439000404B1B6801333F4A136000F020FD3E4B49
:1043A0001B683A699A424DD3384B1B681B68002B37
:1043B00001D1012300E00023002B04D0364B4FF045
:1043C000FF321A603EE0314B1B68DB68DB68BB6084
:1043D000BB685B687B603A697B689A4203D22E4A6D
:1043E0007B6813602EE0BB680433184601F0FCFBC9
:1043F000BB689B6A002B04D0BB681833184601F0D9
:10440000F3FBBB68DB6A01229A40244B1B68134311
:10441000224A1360BB68DA6A13469B0013449B0070
:104420001F4A1A44BB6804331946104601F07FFB4B
:10443000BB68DA6A1B4B1B68DB6A9A42B4D3012360
:104440007B61B1E7174B1B68DA6A154913469B007D
:1044500013449B000B441B68012B07D901237B618C
:1044600004E0114B1B6801330F4A13600F4B1B68AC
:10447000002B01D001237B617B6918461837BD46AC
:1044800080BD00BF94030020740300202803002097
:104490002C030020880300209003002078030020D4
:1044A000740200207002002080030020840300209A
:1044B00080B487B000AF264B1B68002B03D0254B80
:1044C00001221A603EE0234B00221A60224B1B6837
:1044D000FB60FB68B3FA83F3FB72FB7AC3F11F0343
:1044E0007B611E497A6913469B0013449B000B4471
:1044F0001B68002B09D14FF0500383F31188BFF3E1
:104500006F8FBFF34F8F7B60FEE77A6913469B0086
:1045100013449B00114A13443B613B695B685A6832
:104520003B695A603B695A683B6908339A4204D137
:104530003B695B685A683B695A603B695B68DB684A
:10454000074A136000BF1C37BD465DF8047B704707
:1045500094030020840300207803002074020020CC
:104560007002002080B584B000AF786039607B684D
:10457000002B09D14FF0500383F31188BFF36F8FE5
:10458000BFF34F8FBB60FEE7194B1B68183319460A
:10459000786801F0F0FA164B1B680433184601F0F6
:1045A00023FB0346002B0BD1114B1B68DB6A012256
:1045B00002FA03F3DA430F4B1B6813400D4A1360F2
:1045C0003B68B3F1FF3F07D1094B1B680433194621
:1045D000094801F0ACFA07E0084B1A683B6813443D
:1045E000FB60F86800F0D8FA00BF1037BD4680BD08
:1045F00070020020780300205C0300207403002078
:1046000080B588B000AFF860B9607A60FB68002BB5
:1046100009D14FF0500383F31188BFF36F8FBFF3BD
:104620004F8FBB61FEE7244B1B68002B09D14FF075
:10463000500383F31188BFF36F8FBFF34F8F7B61FC
:10464000FEE71E4B1B68BA6842F000429A611B4BA2
:104650001B6818331946F86801F069FA174B1B6894
:104660000433184601F0C0FA0346002B0BD1134B5C
:104670001B68DB6A012202FA03F3DA43104B1B6862
:1046800013400F4A13607B68B3F1FF3F07D10B4B18
:104690001B68043319460B4801F049FA07E00A4B3E
:1046A0001A687B681344FB61F86900F075FA00BF73
:1046B0002037BD4680BD00BF94030020700200205B
:1046C000780300205C0300207403002080B586B0CE
:1046D00000AF78607B68DB68DB683B613B69002B7F
:1046E00009D14FF0500383F31188BFF36F8FBFF3ED
:1046F0004F8FFB60FEE73B691833184601F074FAF0
:104700001D4B1B68002B1CD13B690433184601F07C
:104710006BFA3B69DB6A01229A40184B1B68134312
:10472000164A13603B69DA6A13469B0013449B00E8
:10473000134A1A443B6904331946104601F0F7F94D
:1047400005E03B69183319460E4801F0F0F93B6962
:10475000DA6A0D4B1B68DB6A9A4205D901237B613B
:104760000A4B01221A6001E000237B617B69184635
:104770001837BD4680BD00BF940300207803002099
:104780007402002030030020700200208403002007
:1047900080B586B000AF786039602B4B1B68002B6A
:1047A00009D14FF0500383F31188BFF36F8FBFF32C
:1047B0004F8FFB60FEE73B6843F000427B681A6066
:1047C0007B68DB683B613B69002B09D14FF05003EC
:1047D00083F31188BFF36F8FBFF34F8FBB60FEE78A
:1047E000786801F001FA3B690433184601F0FCF9DE
:1047F0003B69DB6A01229A40144B1B681343134A3E
:1048000013603B69DA6A13469B0013449B00104A0D
:104810001A443B6904331946104601F088F93B6994
:10482000DA6A0C4B1B68DB6A9A4205D901237B616B
:10483000094B01221A6001E000237B617B69184665
:104840001837BD4680BD00BF9403002078030020C8
:1048500074020020700200208403002080B485B020
:1048600000AF78607B68002B09D14FF0500383F3D1
:104870001188BFF36F8FBFF34F8FFB60FEE7074BCD
:104880001A687B681A60064B1A687B685A6000BF1A
:104890001437BD465DF8047B704700BF88030020D5
:1048A0007403002080B586B000AF786039607B6803
:1048B000002B09D14FF0500383F31188BFF36F8FA2
:1048C000BFF34F8FFB60FEE73B68002B09D14FF031
:1048D000500383F31188BFF36F8FBFF34F8FBB601B
:1048E000FEE7FEF747FE1C4B1B683B613B681B68FD
:1048F000B3F1FF3F02D100237B6126E07B681A6899
:10490000164B1B689A4207D07B685A683B699A42EB
:1049100002D801237B6118E07B685B683A69D21A90
:104920003B681B689A420ED23B681A687B685968DC
:104930003B69CB1A1A443B681A607868FFF78EFF10
:1049400000237B6101E001237B61FEF741FE7B696F
:1049500018461837BD4680BD740300208803002028
:1049600080B400AF034B01221A6000BFBD465DF862
:10497000047B70478403002080B485B000AF78606A
:104980007B68002B05D07B68BB60BB689B6CFB60C1
:1049900001E00023FB60FB6818461437BD465DF854
:1049A000047B704780B485B000AF786039607B6865
:1049B000002B04D07B68FB60FB683A689A6400BFF8
:1049C0001437BD465DF8047B704780B582B000AFF8
:1049D000786000F0A5F8064B1B68012BF9D9054B50
:1049E0004FF080521A60BFF34F8FBFF36F8FF0E725
:1049F0007402002004ED00E080B586B000AFF860DE
:104A0000B9607A603B6000237B6112E0BA687B6921
:104A100013441978FA687B69134434330A461A70D0
:104A2000BA687B6913441B78002B06D07B6901337D
:104A30007B617B690F2BE9D900E000BFFB68002296
:104A400083F843207B68062B01D906237B60FB6833
:104A50007A68DA62FB687A68DA64FB6800221A65B1
:104A6000FB680433184601F055F8FB681833184604
:104A700001F050F8FB68FA681A617B68C3F107021D
:104A8000FB689A61FB68FA685A62FB6800225A6503
:104A9000FB68002283F8582000BF1837BD4680BD50
:104AA00080B582B000AF00237B600CE07A681346CB
:104AB0009B0013449B00124A1344184601F00AF865
:104AC0007B6801337B607B68062BEFD90D4801F0D2
:104AD00001F80D4800F0FEFF0C4800F0FBFF0C4809
:104AE00000F0F8FF0B4800F0F5FF0B4B054A1A6089
:104AF0000A4B054A1A6000BF0837BD4680BD00BF9B
:104B00007402002000030020140300203003002062
:104B1000440300205C030020280300202C03002015
:104B200080B582B000AF28E0FFF7BAFA174B1B68D8
:104B3000002B0CBF01230023DBB27B60FFF7BEFA22
:104B40007B68002B19D1FEF715FD104BDB68DB6885
:104B50003B603B680433184601F046F80C4B1B6879
:104B6000013B0B4A13600B4B1B68013B094A136066
:104B7000FEF72EFD386800F022F9064B1B68002B6B
:104B8000D2D100BF0837BD4680BD00BF440300201E
:104B9000700300205803002080B582B000AF786019
:104BA000134B1B687A685A60124B1B687A689A42EA
:104BB00009D2114B1A680E4B1B6804331946104674
:104BC00000F0D9FF10E00D4B1A68094B1B68043345
:104BD0001946104600F0CFFF094B1B687A689A42CD
:104BE00002D2074A7B68136000BF0837BD4680BD0C
:104BF00070020020740300202C03002028030020F2
:104C00009003002080B584B000AF03463960FB807C
:104C10003B68002B06D1FB889B00184600F064FD22
:104C2000034600E03B68BB60BB68002B0ED05C20F5
:104C300000F05AFDF860FB68002B03D0FB68BA68EF
:104C40001A6305E0B86800F011FE01E00023FB6084
:104C5000FB68002B07D0FB68186BFB889B001A468B
:104C6000A52113F070FBFB6818461037BD4680BDC8
:104C700090B58BB000AFF860B9601346FB710023AC
:104C80007B62BB681B68002B78D0BB683B623B6AC9
:104C90005B685A683B6A5A603B6A5A683B6A0833E9
:104CA0009A4204D13B6A5B685A683B6A5A603B6A25
:104CB0005B68DB68FB61BB68BB61BB695B685A68AA
:104CC000BB695A60BB695A68BB6908339A4204D110
:104CD000BB695B685A68BB695A60BB695B68DB6823
:104CE0007B617B6A5B01FA6813447A691A607B6AAC
:104CF0005B01FA6813447A6934325A607B6A5B015B
:104D0000FA6813447A69526C9A607B6A5B01FA68AC
:104D10001344FA791A737B6A5B01FA6813447A695F
:104D2000D26A1A61FB79032B09D17B699B6A002B3C
:104D300005D07B6A5B01FA68134402221A737B6A0E
:104D40005B01FA6813447A69D26C5A617B6A5B0131
:104D5000FA68134400229A617B6A5B01FA68D418EE
:104D60007B691B6B184600F00EF80346A3837B6A31
:104D700001337B627A69FB699A429CD17B6A18464F
:104D80002C37BD4690BD80B485B000AF786000235D
:104D9000FB6005E07B6801337B60FB680133FB60EF
:104DA0007B681B78A52BF5D0FB689B08FB60FB6834
:104DB0009BB218461437BD465DF8047B704780B53A
:104DC00082B000AF78607B681B6B184600F04EFD28
:104DD000786800F04BFD00BF0837BD4680BD80B449
:104DE00083B000AF0E4B1B681B68002B01D1012361
:104DF00000E00023002B04D00A4B4FF0FF321A6072
:104E000008E0074B1B68DB68DB687B607B685B68DE
:104E1000044A136000BF0C37BD465DF8047B704741
:104E2000280300209003002080B483B000AF054B1E
:104E30001B687B607B6818460C37BD465DF8047BB9
:104E4000704700BF7002002080B483B000AF0B4BEE
:104E50001B68002B02D101237B6008E0084B1B6814
:104E6000002B02D102237B6001E000237B607B6882
:104E700018460C37BD465DF8047B70477C03002064
:104E80009403002080B584B000AF78607B68FB603D
:104E90007B68002B62D0FB68DA6A324B1B68DB6AE6
:104EA0009A425BD2FB689B69002B06DB2D4B1B688B
:104EB000DB6AC3F10702FB689A61FB685969FB680A
:104EC000DA6A13469B0013449B00274A1344994215
:104ED00001D1012300E00023002B3AD0FB6804330A
:104EE000184600F081FE0346002B15D1FB68DA6AF4
:104EF0001D4913469B0013449B000B441B68002B69
:104F00000AD1FB68DB6A012202FA03F3DA43174B8A
:104F10001B681340154A1360124B1B68DA6AFB6862
:104F2000DA62FB68DB6A01229A40104B1B6813436C
:104F30000E4A1360FB68DA6A13469B0013449B0019
:104F4000094A1A44FB6804331946104600F0EFFD85
:104F500004E0044B1B68DA6AFB68DA6200BF1037B2
:104F6000BD4680BD7002002074020020780300203E
:104F700080B586B000AF78607B683B6100237B61C1
:104F80007B68002B6CD0394B1B683A699A4209D078
:104F90004FF0500383F31188BFF36F8FBFF34F8F30
:104FA000FB60FEE73B691B6D002B09D14FF05003FE
:104FB00083F31188BFF36F8FBFF34F8FBB60FEE7A2
:104FC0003B691B6D5A1E3B691A653B69DA6A3B698E
:104FD000DB6C9A4244D03B691B6D002B40D13B698E
:104FE0000433184600F000FE0346002B15D13B6940
:104FF000DA6A1F4913469B0013449B000B441B684D
:10500000002B0AD13B69DB6A012202FA03F3DA437F
:10501000184B1B681340174A13603B69DA6C3B69F5
:10502000DA623B69DB6AC3F107023B699A613B695B
:10503000DB6A01229A400F4B1B6813430D4A136031
:105040003B69DA6A13469B0013449B00084A1A44E2
:105050003B6904331946104600F069FD01237B616A
:105060007B6918461837BD4680BD00BF700200201E
:10507000740200207803002080B483B000AF094B95
:105080001B689B697B60074B1B68064A1268D26AE3
:10509000C2F107029A617B6818460C37BD465DF87D
:1050A000047B70477002002080B400AF074B1B6880
:1050B000002B04D0054B1B681A6D01321A65034B97
:1050C0001B681846BD465DF8047B704770020020DF
:1050D00080B584B000AF78603960FEF74BFA314B91
:1050E0001B685B6D002B38D12E4B1B68012283F8A7
:1050F00058203B68002B30D02A4B1B6804331846DD
:1051000000F072FD0346002B0BD1264B1B68DB6AB7
:10511000012202FA03F3DA43234B1B681340224AAD
:1051200013603B68B3F1FF3F07D11E4B1B6804338C
:1051300019461E4800F0FBFC07E01D4B1A683B684F
:105140001344FB60F868FFF727FD1A4B4FF08052BD
:105150001A60BFF34F8FBFF36F8FFEF739FAFEF778
:1051600009FA104B1B685B6DBB60BB68002B0CD051
:105170007B68002B04D00B4B1B6800225A6504E0AF
:10518000084B1B685A6D013A5A65064B1B68002292
:1051900083F85820FEF71CFABB6818461037BD4646
:1051A00080BD00BF70020020780300205C03002057
:1051B0007403002004ED00E080B586B000AFF86015
:1051C000B9607A603B60FEF7D5F9394B1B6893F8FC
:1051D0005830DBB2022B3FD0354B1B68596DFA6853
:1051E000D2430A405A65324B1B68012283F858208B
:1051F0003B68002B30D02E4B1B680433184600F060
:10520000F3FC0346002B0BD1294B1B68DB6A012200
:1052100002FA03F3DA43274B1B681340254A136055
:105220003B68B3F1FF3F07D1214B1B68043319469C
:10523000214800F07CFC07E0204B1A683B681344CF
:105240003B613869FFF7A8FC1D4B4FF080521A6094
:10525000BFF34F8FBFF36F8FFEF7BAF9FEF78AF9EE
:105260007B68002B04D0124B1B685A6D7B681A6058
:105270000F4B1B6893F85830DBB2012B02D100238F
:105280007B6108E00A4B1B68596DBA68D2430A403B
:105290005A6501237B61064B1B68002283F8582066
:1052A000FEF796F97B6918461837BD4680BD00BFEA
:1052B00070020020780300205C03002074030020AB
:1052C00004ED00E080B58AB000AFF860B9603B60E3
:1052D0001346FB7101237B62FB68002B09D14FF061
:1052E000500383F31188BFF36F8FBFF34F8FBB6100
:1052F000FEE7FB683B62FEF73DF93B68002B03D0FD
:105300003B6A5A6D3B681A603B6A93F85830FB77EA
:105310003B6A022283F85820FB79042B27D801A28C
:1053200052F823F06F530008395300084753000820
:10533000535300085B5300083B6A5A6DBB681A431D
:105340003B6A5A6513E03B6A5B6D5A1C3B6A5A65BF
:105350000DE03B6ABA685A6509E0FB7F022B03D077
:105360003B6ABA685A6501E000237B6200BFFB7F9D
:10537000012B38D13B6A0433184600F035FC3B6AF8
:10538000DB6A01229A401B4B1B681343194A1360C6
:105390003B6ADA6A13469B0013449B00164A1A4480
:1053A0003B6A04331946104600F0C1FB3B6A9B6A16
:1053B000002B09D04FF0500383F31188BFF36F8F98
:1053C000BFF34F8F7B61FEE73B6ADA6A0B4B1B68CA
:1053D000DB6A9A4207D90A4B4FF080521A60BFF33A
:1053E0004F8FBFF36F8FFEF7F3F87B6A18462837AD
:1053F000BD4680BD780300207402002070020020AA
:1054000004ED00E080B58EB000AFF860B9603B609D
:105410001346FB7101237B63FB68002B09D14FF01E
:10542000500383F31188BFF36F8FBFF34F8F7B62FD
:10543000FEE7FEF76DF9FB683B63EFF311824FF077
:10544000500383F31188BFF36F8FBFF34F8F3A621E
:10545000FB613B6AFB623B68002B03D03B6B5A6DE0
:105460003B681A603B6B93F8583087F82B303B6BE6
:10547000022283F85820FB79042B29D801A252F884
:1054800023F000BFD154000899540008A754000825
:10549000B3540008BB5400083B6B5A6DBB681A43F9
:1054A0003B6B5A6514E03B6B5B6D5A1C3B6B5A655A
:1054B0000EE03B6BBA685A650AE097F82B30022B76
:1054C00003D03B6BBA685A6501E000237B6300BFE1
:1054D00097F82B30012B41D13B6B9B6A002B09D0F5
:1054E0004FF0500383F31188BFF36F8FBFF34F8FDB
:1054F000BB61FEE71E4B1B68002B1CD13B6B0433CA
:10550000184600F071FB3B6BDB6A01229A40194B95
:105510001B681343174A13603B6BDA6A13469B0000
:1055200013449B00144A1A443B6B0433194610463B
:1055300000F0FDFA05E03B6B183319460F4800F008
:10554000F6FA3B6BDA6A0E4B1B68DB6A9A4205D9A6
:105550003B6C002B02D03B6C01221A60FB6A7B6122
:105560007B6983F311887B6B18463837BD4680BD55
:1055700094030020780300207402002030030020F0
:105580007002002080B58AB000AF786039607B6817
:10559000002B09D14FF0500383F31188BFF36F8FB5
:1055A000BFF34F8FBB61FEE7FEF7B2F87B687B620B
:1055B000EFF311824FF0500383F31188BFF36F8F25
:1055C000BFF34F8F7A613B617B693B627B6A93F8E3
:1055D0005830FB777B6A022283F858207B6A5B6D28
:1055E0005A1C7B6A5A65FB7F012B41D17B6A9B6AFF
:1055F000002B09D04FF0500383F31188BFF36F8F56
:10560000BFF34F8FFB60FEE71E4B1B68002B1CD1C6
:105610007B6A0433184600F0E7FA7B6ADB6A0122F2
:105620009A40194B1B681343174A13607B6ADA6A66
:1056300013469B0013449B00144A1A447B6A0433AC
:105640001946104600F073FA05E07B6A18331946D4
:105650000F4800F06CFA7B6ADA6A0E4B1B68DB6A53
:105660009A4205D93B68002B02D03B6801221A60A0
:105670003B6ABB60BB6883F3118800BF2837BD4617
:1056800080BD00BF94030020780300207402002036
:10569000300300207002002080B584B000AF786035
:1056A0007B68BB60BB68002B02D10E4B1B6800E01F
:1056B000BB68BB60FDF75EFFBB6893F85830DBB298
:1056C000022B06D1BB68002283F858200123FB601F
:1056D00001E00023FB60FDF77BFFFB6818461037F5
:1056E000BD4680BD7002002080B58AB000AF7860F2
:1056F0000023FB61FEF7D4FC574B1B68002B01D144
:1057000000F02BF9554B1A687B681340002B40F0D2
:105710008C807B68002B1CD008227B6813447B6044
:105720007B6803F00703002B13D07B6823F007038B
:1057300008337B607B6803F00703002B09D04FF030
:10574000500383F31188BFF36F8FBFF34F8F7B61DB
:10575000FEE77B68002B68D0414B1B687A689A4251
:1057600063D8404B3B623F4B1B687B6204E07B6A23
:105770003B627B6A1B687B627B6A5A687B689A42E1
:1057800003D27B6A1B68002BF1D1334B1B687A6A0A
:105790009A424AD03B6A1B6808221344FB617B6A29
:1057A0001A683B6A1A607B6A5A687B68D21A0823B7
:1057B0005B009A421ED97A6A7B681344BB61BB695D
:1057C00003F00703002B09D04FF0500383F3118837
:1057D000BFF36F8FBFF34F8F3B61FEE77B6A5A6861
:1057E0007B68D21ABB695A607B6A7A685A60B8696A
:1057F00000F016F91A4B1A687B6A5B68D31A184ACC
:105800001360174B1A68184B1B689A4203D2144B4B
:105810001B68154A13607B6A5A68104B1B681A4351
:105820007B6A5A607B6A00221A60FEF747FCFB69BC
:1058300003F00703002B09D04FF0500383F31188C6
:10584000BFF36F8FBFF34F8FFB60FEE7FB69184616
:105850002837BD4680BD00BFA03F0020AC3F0020E0
:10586000A43F0020983F0020A83F002080B586B0CC
:1058700000AF78607B687B617B68002B46D0082393
:105880005B427A6913447B617B693B613B695A687F
:10589000204B1B681340002B09D14FF0500383F3BA
:1058A0001188BFF36F8FBFF34F8FFB60FEE73B693B
:1058B0001B68002B09D04FF0500383F31188BFF30E
:1058C0006F8FBFF34F8FBB60FEE73B695A68114B88
:1058D0001B681340002B19D03B691B68002B15D1A6
:1058E0003B695A680B4B1B68DB431A403B695A60A3
:1058F000FEF7D6FB3B695A68074B1B681344064A00
:105900001360386900F08CF8FEF7D8FB00BF183739
:10591000BD4680BDAC3F0020A43F002080B400AF56
:10592000034B1B681846BD465DF8047B704700BFFB
:10593000A43F002080B400AF034B1B681846BD464F
:105940005DF8047B704700BFA83F002080B400AF23
:1059500000BFBD465DF8047B704780B485B000AFE2
:105960004FF47053BB60284BFB60FB6803F00703E8
:10597000002B0CD0FB680733FB60FB6823F00703A8
:10598000FB60BA68FB68D31A1F4A1344BB60FB680C
:105990007B601E4A7B6813601C4B00225A607A6849
:1059A000BB681344FB600822FB689B1AFB60FB6822
:1059B00023F00703FB60FB68154A1360144B1B6858
:1059C00000225A60124B1B6800221A607B683B6001
:1059D0003B68FA68D21A3B685A600D4B1A683B68FC
:1059E0001A603B685B680B4A13603B685B680A4A55
:1059F00013600A4B4FF000421A6000BF1437BD46D7
:105A00005DF8047B704700BF98030020983F00209A
:105A1000A03F0020A83F0020A43F0020AC3F002072
:105A200080B485B000AF7860284BFB6002E0FB6873
:105A30001B68FB60FB681A687B689A42F7D3FB68B7
:105A4000BB60FB685B68BA681A447B689A4208D1FD
:105A5000FB685A687B685B681A44FB685A60FB689D
:105A60007B607B68BB607B685B68BA681A44FB68D4
:105A70001B689A4218D1FB681A68154B1B689A423A
:105A80000DD07B685A68FB681B685B681A447B68AA
:105A90005A60FB681B681A687B681A6008E00C4B48
:105AA0001A687B681A6003E0FB681A687B681A60F2
:105AB000FA687B689A4202D0FB687A681A6000BF75
:105AC0001437BD465DF8047B704700BF983F002047
:105AD000A03F002080B483B000AF78607B6803F102
